:0B03E20048656C6C6F576F726C640014
:1002FE001203B37BFF7A0379E27D017F0112032A99
:10030E001200038F22EFFB7A00750C027D017F0233
:0C031E0012036B7FC87E0012039E80E477
:10039E00EF1FAC0670011E4C600A7D027CEFDCFE86
:0403AE00DDFC80EC06
:0103B2002228
:0603C700C2A58F80D2A741
:0803CD007F027EEFDEFEDFFC83
:0103D5002205
:0A03ED00C2A61203C7C2A70203CD87
:10034D00CFCDCFCECCCE1201CB7C007D0A1201CB0E
:04035D00ED2430FF5C
:0A036100D2A61203C7C2A70203CD03
:10038800AE07BE0104ED148006BE0209ED243F4409
:0603980080FF1203ED22BC
:1003B3007F381203ED7F0C1203ED7F061203ED7FEE
:0403C300010203ED43
:0A03F700AC03120388AF0402036197
:06032A008B088A09890A14
:10033000120388E4FDAB08AA09A90A8D827583001F
:0C03400012018CFF60061203610D80E9C1
:01034C00228E
:0C02CB007F0AEA24FFFDE434FFFC7E0003
:0802D7008E0D8F0E8C0F8D10AF
:1002DF007F017E00E4FBEBC39510E50F6480F8749B
:0E02EF008098500AAC0DAD0E1201B90B80E8DC
:0102FD0022DE
:04036B008A0A8B0B64
:10036F00120388AA0CEAD39400400D1202CBAC0AF8
:08037F00AD0B12034D1A80EDD5
:010387002253
:10022000120388C3EA64809480400B7F2B12036121
:100230008A168B17800E7F2D120361C3E49BF5177E
:10024000E49AF516AA15EAD39400400D1202CBAC3D
:0902500016AD1712034D1A80EDE2
:010259002282
:04025A008A1A8B1B56
:10025E00120388AA1CEAD3940040297F101202CD03
:10026E00AC1AAD1BCFCDCFCECCCE1201CBEF540FEF
:10027E00FEC3940AEE5004243080022437FF12038A
:04028E00611A80D1A0
:010292002249
:040293008A1F8B2013
:10029700120388AA21EAD394004028EA24FFFDE448
:1002A70034FFFC7F027E001202D7AC1FAD20CFCDFA
:1002B700CFCECCCE1201CBEF54012430FF12036115
:0302C7001A80D2C8
:0102CA002211
:10000300E4F5087590FFC2932097137F14FE120343
:100013009E3097FD7F147E0012039E750801209683
:10002300147F147E0012039E3096FD7F147E00120F
:10003300039E7508052095147F147E0012039E30DD
:1000430095FD7F147E0012039E7508092094147F8A
:10005300147E0012039E3094FD7F147E0012039ED3
:1000630075080D7590FFC2922097147F147E0012BD
:10007300039E3097FD7F147E0012039E75080220B5
:1000830096147F147E0012039E3096FD7F147E002B
:1000930012039E7508062095147F147E0012039E9A
:1000A3003095FD7F147E0012039E75080A20941478
:1000B3007F147E0012039E3094FD7F147E00120392
:1000C3009E75080E7590FFC2912097147F147E00D1
:1000D30012039E3097FD7F147E0012039E75080362
:1000E3002096147F147E0012039E3096FD7F147EAB
:1000F3000012039E7508072095147F147E001203D7
:100103009E3095FD7F147E0012039E75080B20948C
:10011300147F147E0012039E3094FD7F147E001220
:10012300039E75080F7590FFC2902097147F147E6D
:100133000012039E3097FD7F147E0012039E750804
:10014300042096147F147E0012039E3096FD7F14C4
:100153007E0012039E7508082095147F147E0012FA
:10016300039E3095FD7F147E0012039E75080C20BC
:1001730094147F147E0012039E3094FD7F147E003E
:0801830012039E750810AF087D
:01018B002251
:030000000203D622
:0C03D600787FE4F6D8FD7581220202FE5B
:10018C00BB010CE58229F582E5833AF583E0225028
:10019C0006E92582F8E622BBFE06E92582F8E22272
:0D01AC00E58229F582E5833AF583E493228C
:1001B900EF8DF0A4A8F0CF8CF0A428CE8DF0A42E5A
:0201C900FE2214
:1001CB00BC000BBE0029EF8DF084FFADF022E4CC18
:1001DB00F875F008EF2FFFEE33FEEC33FCEE9DECE1
:1001EB00984005FCEE9DFE0FD5F0E9E4CEFD22ED27
:1001FB00F8F5F0EE8420D21CFEADF075F008EF2F71
:10020B00FFED33FD4007985006D5F0F222C398FD61
:05021B000FD5F0EA22FE
:00000001FF
