:1004ED0050617373776F72643A004F4B2000455221
:0204FD005200AB
:0405220002180000BB
:10018C001204D97BFF7A0479ED7D017F01120450B2
:10019C001200038F1CE51C60F7D3940A5043C3E58F
:1001AC00199404E518648094805028AE1AAF1B7C17
:1001BC00007D0A12027F8E1A8F1BE51C75F00A84D3
:1001CC00E5F0251BF51BE4351AF51A0519E5197030
:1001DC00020518750C04AB1BAA1A7D017F021204D0
:1001EC0091E51C640B703DE51BB42914E51AB409A8
:1001FC000F7BFF7A0479F77D0E7F01120450802467
:10020C007BFF7A0479FB7D0E7F01120450E4F51A12
:10021C00F51BF518F519750C04AB1BAA1A7D017F9B
:10022C0002120491E51C640C600302019CF51AF5A2
:10023C001BF518F519750C04AB1BAA1A7D017F026E
:06024C0012049102019C66
:1004C400EF1FAC0670011E4C600A7D027CEFDCFE5F
:0404D400DDFC80ECDF
:0104D8002201
:0604FF00C2A58F80D2A708
:080505007F027EEFDEFEDFFC49
:01050D0022CB
:0A050E00C2A61204FFC2A7020505F1
:10047300CFCDCFCECCCE1202917C007D0A12029159
:04048300ED2430FF35
:0A048700D2A61204FFC2A702050569
:1004AE00AE07BE0104ED148006BE0209ED243F44E2
:0604BE0080FF12050E2272
:1004D9007F3812050E7F0C12050E7F0612050E7F5E
:0404E9000102050EF9
:0A051800AC031204AEAF0402048726
:060450008B088A09890AED
:100456001204AEE4FDAB08AA09A90A8D82758300D1
:0C046600120252FF60061204870D80E9AC
:010472002267
:0C041D007F0AEA24FFFDE434FFFC7E00AF
:080429008E0D8F0E8C0F8D105B
:100431007F017E00E4FBEBC39510E50F6480F87447
:0E0441008098500AAC0DAD0E12027F0B80E8C1
:01044F00228A
:040491008A0A8B0B3D
:100495001204AEAA0CEAD39400400D12041DAC0A56
:0804A500AD0B1204731A80ED87
:0104AD00222C
:100372001204AEC3EA64809480400B7F2B12048780
:100382008A168B17800E7F2D120487C3E49BF51704
:10039200E49AF516AA15EAD39400400D12041DAC96
:0903A20016AD171204731A80ED68
:0103AB00222F
:0403AC008A1F8B20F9
:1003B0001204AEAA21EAD3940040297F1012041F30
:1003C000AC1FAD20CFCDCFCECCCE120291EF540FCB
:1003D000FEC3940AEE5004243080022437FF120436
:0403E000871A80D127
:0103E40022F6
:0403E5008A248B25B6
:1003E9001204AEAA26EAD394004028EA24FFFDE4C9
:1003F90034FFFC7F027E00120429AC24AD25CFCD49
:10040900CFCECCCE120291EF54012430FF120487D3
:030419001A80D274
:01041C0022BD
:10000300E4F5087590FFC2932097137F14FE120442
:10001300C43097FD7F147E001204C4750801209636
:10002300147F147E001204C43096FD7F147E0012E8
:1000330004C47508052095147F147E001204C4308F
:1000430095FD7F147E001204C47508092094147F63
:10005300147E001204C43094FD7F147E001204C485
:1000630075080D7590FFC2922097147F147E0012BD
:1000730004C43097FD7F147E001204C47508022067
:1000830096147F147E001204C43096FD7F147E0004
:100093001204C47508062095147F147E001204C44C
:1000A3003095FD7F147E001204C475080A20941451
:1000B3007F147E001204C43094FD7F147E0012046A
:1000C300C475080E7590FFC2912097147F147E00AB
:1000D3001204C43097FD7F147E001204C475080314
:1000E3002096147F147E001204C43096FD7F147E84
:1000F300001204C47508072095147F147E001204AF
:10010300C43095FD7F147E001204C475080B20943F
:10011300147F147E001204C43094FD7F147E0012F9
:1001230004C475080F7590FFC2902097147F147E46
:10013300001204C43097FD7F147E001204C47508B6
:10014300042096147F147E001204C43096FD7F149D
:100153007E001204C47508082095147F147E0012D3
:1001630004C43095FD7F147E001204C475080C206E
:1001730094147F147E001204C43094FD7F147E0017
:080183001204C4750810AF0856
:01018B002251
:030000000202E613
:0C02E600787FE4F6D8FD75812602032D18
:10025200BB010CE58229F582E5833AF583E0225061
:1002620006E92582F8E622BBFE06E92582F8E222AB
:0D027200E58229F582E5833AF583E49322C5
:10027F00EF8DF0A4A8F0CF8CF0A428CE8DF0A42E93
:02028F00FE224D
:10029100BC000BBE0029EF8DF084FFADF022E4CC51
:1002A100F875F008EF2FFFEE33FEEC33FCEE9DEC1A
:1002B100984005FCEE9DFE0FD5F0E9E4CEFD22ED60
:1002C100F8F5F0EE8420D21CFEADF075F008EF2FAA
:1002D100FFED33FD4007985006D5F0F222C398FD9B
:0502E1000FD5F0EA2238
:1002F20002018CE493A3F8E493A34003F68001F295
:1003020008DFF48029E493A3F85407240CC8C3330C
:10031200C4540F4420C8834004F456800146F6DFDB
:10032200E4800B0102040810204080900522E47E44
:10033200019360BCA3FF543F30E509541FFEE493D0
:10034200A360010ECF54C025E060A840B8E493A397
:10035200FAE493A3F8E493A3C8C582C8CAC583CAC2
:10036200F0A3C8C582C8CAC583CADFE9DEE780BE7A
:0105260000D4
:00000001FF
